:020000040800F2
:1000000068040020E50000082B0200082502000813
:100010002902000821020008AD02000800000000CB
:100020000000000000000000000000002F02000897
:1000300023020008000000002D020008090100084A
:10004000FF000008FF000008FF000008FF00000894
:10005000FF000008FF000008FF000008FF00000884
:1000600000000000FF000008FF000008FF0000087B
:10007000FF000008FF000008FF000008000000006B
:10008000FF000008FF00000800000000FF0000085B
:10009000FF000008FF000008FF000008FF00000844
:1000A000FF000008FF000008FF000008FF00000834
:1000B000FF00000800000000000000000000000039
:1000C000FF00000800000000FF000008DFF810D06B
:1000D00000F05AF800F090F800480047F9030008D3
:1000E000680400200648804706480047FEE7FEE710
:1000F000FEE7FEE7FEE7FEE7FEE7FEE7FEE7FEE7D8
:1001000051020008CD00000830B410B50348804704
:1001100030BCAE4630BC024800477047B908000802
:10012000310200082DE9F05F0546002092469B460B
:1001300088460646814640241BE0284641464746FD
:10014000224600F048F853465A46C01A914110D34F
:1001500011461846224600F02FF82D1A67EB0108C9
:100160004F4622460120002100F026F817EB000937
:100170004E41201EA4F10104DFDC484631462A46E8
:100180004346BDE8F09F00001CB5094800900948AF
:1001900001900546009C06E0E06840F0010394E809
:1001A000070098471034AC42F6D3FFF793FF0000E6
:1001B000DC090008FC090008202A04DB203A00FAC8
:1001C00002F1002070479140C2F1200320FA03F3AE
:1001D000194390407047202A04DB203A21FA02F0AC
:1001E0000021704721FA02F3D040C2F12002914071
:1001F00008431946704700007CB50748009007483F
:1002000001900546009C04E02046016808448047B0
:10021000241DAC42F8D17CBDFC090008000A00088E
:10022000FEE77047FEE70000FEE770477047704743
:1002300040F21000C2F2000001880131018040F25A
:100240006000C2F2000001680131016070470000E7
:1002500041F20000C4F20200016841F001010160B6
:1002600001688907FCD5416821F00301416000BFA6
:10027000416811F00C0FFBD101684FF6FF72CFF609
:10028000F262114001600021416041F61071C162CB
:100290004FF4801101634FF41F0181604EF6085046
:1002A000CEF200004FF0006101607047FEE700F001
:1002B00038B810B54EF21403CEF20003EFF3108CF1
:1002C00072B618685968D3F8F02C401A4FF0000E37
:1002D0006EF1000152010BD518685968401A19686F
:1002E0006EF10002401842F10001013041F10001BD
:1002F00040F24002C2F20002D2E9002340F2280E8E
:10030000C2F2000E8018DEE900245941821A71EB16
:100310000402ACBFCEE90001DEE900018CF31088D5
:1003200010BDB0B54EF60451CEF200014FF0007290
:10033000EFF3108072B60A6080F3108840F200007C
:10034000C2F2000000684DF68361C4F21B31A0FBCD
:10035000011244F6D351C1F26201A0FB0101900CDD
:1003600040F20802C2F200021060880940F2040163
:10037000C2F200010860EFF3108472B6FFF799FF34
:1003800040F21805C2F20005C5E90001BFF34F8F26
:10039000BFF36F8FFFF78DFFD5E90012401A40F2CF
:1003A0002001C2F20001086040F24000C2F20000E9
:1003B000002184F31088C0E9001140F24800C2F225
:1003C0000000C0E9001140F25000C2F20000C0E994
:1003D000001140F22800C2F20000C0E9001140F212
:1003E0003800C2F20000C0E9001140F23000C2F251
:1003F0000000C0E90011B0BD41F20400C4F20200E7
:1004000050F8041C41F0010140F8041C50F8041C91
:100410008907FBD5016821F003010160016811F033
:100420000C0FFBD150F8041C4FF6FF72CFF6F262AE
:10043000114040F8041C0021016041F610718162F6
:100440004FF48011C1624FF41F01416042F200017C
:10045000C4F2020140F253120A60826947F20001BD
:1004600042F08052C4F2000182610A6842F4807254
:100470000A60C269920706D4C26942F00102C261F1
:10048000C2699207FCD50A6822F480720A60816909
:1004900021F080518161016A41F00101016200BFD8
:1004A000016A8907FCD550F8041C41F4803140F8FA
:1004B000041C002150F8042C920304D4B1F5405FD1
:1004C00001F10101F6D350F8041C89034FF000013B
:1004D000F0D550F8041C41F0010140F8041C00BFA5
:1004E00050F8041C8907FBD50168F02221F4803103
:1004F0000160C16A41F00071C162816A62F310213A
:100500008162816A012262F307118162816A03229A
:1005100062F302018162816A41F00041816250F818
:10052000041C41F0807140F8041C00BF50F8041C0A
:100530008901FBD50168022221F0F0010160016808
:1005400021F460510160016821F4E0610160016DF6
:1005500041F030010165016862F30101016000BFF3
:1005600000BF00BF00BF00BF00BF00BF00BF00BF93
:1005700000BF00BF00BF00BF00BF00BF00BF00BF83
:1005800000BF00BF00BF00BF016801F00C010829D7
:10059000FAD1016D21F0300101650168C1F38102DA
:1005A00041F20021022AC0F27A010FD0002A0A4645
:1005B00047D1026D92050A4643D5C26A920152BFE5
:1005C0000A4646F60042C0F2DC223AE00268836A3C
:1005D000120C002B1DD403680768C3F38343C7F3D1
:1005E00041773E01751C0F2B2E4618BF0226002FA7
:1005F00018BF2E46D20706EB030204D003689B0304
:1006000001D44A431DE040F60013C0F23D035A43B3
:1006100017E0876A866A856A40F60013D207C0F23F
:100620003D03C7F30317C6F3082605F0070203D0FE
:100630000568AD0358BF0B46734307FA02F2B3FBDC
:10064000F2F240F2000CC2F2000CCCF80020036879
:100650004FF6FF06C3F3031740F6CA13C0F60003B4
:10066000DF5DFA40CCF80020026942F400320261FA
:10067000026942F480220261026942F400220261AE
:10068000026942F4800202614EF60C52CEF2000280
:100690001768374040F20036C0F2FA563743176009
:1006A00017680027177316685773166897731668CC
:1006B000D77416681775166897751668C6F30226FC
:1006C00086F00705042D28BF0425033E38BF3E46AB
:1006D0004FF0FF37AF40FF43B7403F01D775026887
:1006E000C2F38102022A0CD0002A44D1026D920585
:1006F00041D5C26A920144BF46F60041C0F2DC21F6
:1007000039E00268876A120C002F1BD4076806685C
:10071000C7F38347C6F3417635016C1C0F2F25467E
:1007200018BF0225002E18BF2546D20705EB070289
:1007300002D00768BF0303D540F60011C0F23D01A7
:10074000514318E0866A856A846A40F60017D2072A
:10075000C0F23D07C6F30316C5F3082504F00702EF
:1007600003D00468A40358BF0F4607FB05F106FA3F
:1007700002F2B1FBF2F1026840F2004BC2F3031245
:100780009A5C44F6D353D1400268026802684EF284
:1007900010020068CEF200021068C1F2620320F07D
:1007A0000400A1FB031310604FF0FF3000EB532057
:1007B0005060002090601168C4F6000B41F0030106
:1007C00011604FF400614FF0030E01224FF0020858
:1007D0000025CBF8181000BFCE072DD0DBF8006045
:1007E0000EFA00F7BE43CBF80060DBF8006002FAB7
:1007F00000F33343CBF80030DBF8043002FA05F69F
:10080000B343CBF80430DBF8043008FA00F6CBF839
:100810000430DBF80830BB43CBF80830DBF8083095
:100820003343CBF80830DBF80C30BB43CBF80C304B
:10083000DBF80C30CBF80C30013549080C2D00F1F9
:100840000200C9D14EF2C010C0F2E400CCF80000A2
:10085000FFF767FD40F2040840F22007C2F20008EB
:100860004FF47A79C2F200074FF4006AD8F800100A
:100870003868A1FB09215B28ACBF38685A20C31730
:10088000861A8B410EDA151A61EBE074FFF711FD41
:100890002E1844EB010500BFFFF70BFD801B71EB29
:1008A0000500F9DBDBF8140000054FF0280058BF05
:1008B00018204BF800A0D9E72DE9F04F81B04EF297
:1008C0001400CEF20000056840F24000EFF3108BF8
:1008D00072B6C2F20000D0E900124FF00108B8F180
:1008E000010351EB050305F1010642F10002314419
:1008F00040F2580AC0E90012C2F2000ADAF8000019
:10090000B8F1010140F2040955EB0001C2F20009FF
:100910004FF00001D9F8002006EB000441F100017E
:1009200020460023FFF7FEFB40F24802C2F200021D
:10093000D2E900371B187941C2E90031D9F800101B
:1009400040F25C0900FB1140C2F20009CAF8000045
:100950008BF31088EFF3108772B6D9F80000B8F166
:10096000010155EB000140F20805C2F200054FF00D
:1009700000012A6806EB000441F100012046002333
:10098000FFF7D0FB40F25002C2F20002D2E900367B
:100990001B187141C2E90031296800FB1140C9F8F8
:1009A000000087F3108801B0BDE8F08F02E008C8AE
:1009B000121F08C1002AFAD170477047002001E0D9
:1009C00001C1121F002AFBD1704700000000000087
:1009D000000001020304060708090000000A0008DD
:1009E0000000002010000000AC090008100A0008F8
:1009F0001000002058040000BC090008B3F8FFFFF5
:100A000000127A0001000000010000000000000058
:04000005080000CD22
:00000001FF
