:020000040800F2
:10000000482200204D020008AF1B0008391A0008E2
:10001000AD1B0008BD190008311C000800000000DD
:10002000000000000000000000000000B31B0008FA
:10003000BF19000800000000B11B00088D02000875
:1000400067020008670200086702000867020008EC
:1000500067020008670200086702000867020008DC
:10006000000000006702000867020008670200083D
:10007000670200086702000867020008000000002D
:10008000670200086702000800000000670200081D
:10009000670200086702000867020008670200089C
:1000A000670200086702000867020008670200088C
:1000B00067020008000000000000000000000000CF
:1000C00067020008000000006702000800F002F864
:1000D00000F0ACF814A696E8000CB244B344DA453C
:1000E00001D100F0A3F8BAE80F000FA696E830009F
:1000F000A5EB040504EB0607AAEB0704A7F101072B
:100100004FEA15154FEA3414A4F10104AC4201D3AF
:1001100000F08CF813F0010F18BFFB1A43F0010335
:1001200000F001F8DBE7184714B5000034B5000013
:10013000103A24BF78C878C1FAD8520724BF30C813
:1001400030C144BF04680C60704700007047000075
:100150000023002400250026103A28BF78C1FBD8D0
:10016000520728BF30C148BF0B6070476E2900F0AE
:100170004D82702900F09183662909F0B2846529C7
:1001800009F0AF84672909F0AC84612909F0AB84D8
:1001900003681B0A28BF41F08001692900F0FA8139
:1001A000642900F0F781752900F0F4816F2900F0CF
:1001B0001F83782900F05D83E92900F0B982E429E2
:1001C00000F0B682F52900F0B382EF2900F01C831D
:1001D000F82900F05C830368DB0928BF41F0800147
:1001E000632901F0D380732901F0D880E32901F05D
:1001F000E380F32901F0E880002070471FB59DE8F7
:10020000030000F025F901F043F90400002000216B
:1002100008F0D2FD401C60600020002108F0B6FD0F
:10022000E06001F05DFB1FBD10B510BD01F003F9EA
:100230001146FFF7E3FF06F0C1FE01F0DFF903B45A
:10024000FFF7F2FF03BC00F045FC000009488047BF
:1002500009480047FEE7FEE7FEE7FEE7FEE7FEE7A8
:10026000FEE7FEE7FEE7FEE704480549054A064BC0
:1002700070470000D51B0008CD0000084812002080
:1002800048220020481E0020481E002030B410B52F
:100290000348804730BCAE4630BC02480047704738
:1002A00011840008B51B000870B5064600F0B4F8CC
:1002B000056806F10B0020F00704B4429CBF002043
:1002C00070BD2B466A68BAB11068A04210D304F121
:1002D000080188423CBF5068586007D35168101924
:1002E00041601168091B016058601460101D70BDE9
:1002F00013465268002AE7D12146284600F094F8B8
:100300000028DED170BD70B50446051F00F084F8EA
:100310000068002C14BF446870BD002C18BFAC42AC
:100320003CBF20466468F8D301680A18AA4218BF87
:10033000456003D12A6805461144016028684119C7
:10034000A1421CBF6C6070BD61686960216808448F
:10035000286070BD7CB51D4616460C00009007D085
:100360004142A14202D32044401E01E04FF0FF3041
:10037000064B7B442A4669460190304600F05FF9FF
:10038000002C02D0009A002111707CBDEF02000009
:100390000EB5054614460E4613A000F058FB28463D
:1003A00000F055FB16A000F052FB304600F04FFB6A
:1003B00015A000F04CFB00218DF80B100A210DF167
:1003C0000A008DF80A1008E094FBF1F201FB1242DA
:1003D00094FBF1F4303200F8012D002CF4DC00F035
:1003E00036FB00F029FB00002A2A2A20617373657E
:1003F0007274696F6E206661696C65643A200000F2
:100400002C2066696C6520002C206C696E652000CC
:10041000704770477047000000487047F8000020A0
:10042000704770477047704738B504460A46002049
:100430006946AFF30080002808BF38BD0246009926
:10044000204600F055FB012038BD012000F0EBBF35
:10045000F8B5AFF30080054600200C460C2000BF25
:100460000646A819A0420DD9324669460020AFF3CE
:100470000080070008BF00F0D6FF0098A04218BF18
:100480000546C419FFF7C8FF05600746F01D20F0B8
:1004900007004619284600F00AF8B44208BFF8BD24
:1004A000A21B31463868BDE8F84000F021BB0021AE
:1004B0000160416070470C20704710B500F014FBDC
:1004C000006810BD10B5044600F00EFB046010BDBE
:1004D00070B5044685690068C10601D5302600E084
:1004E0002026C00707D070BDD4E9012130469047CF
:1004F000206A401C20626D1EF6D570BD70B50446A2
:1005000085690078C00707D170BDD4E9012120209A
:100510009047206A401C20626D1EF6D570BD0968A8
:100520004A0501D540B27047C905FCD500B27047F5
:1005300009684A0501D5C0B27047C905FCD580B22B
:10054000704770B50C460546012A05D0287880060C
:1005500000D5EA69002302E0012305E05B1C934219
:1005600002D2E05C0028F9D1A869E618C01AA86197
:10057000286A184428622846FFF7AAFF04E0D5E954
:10058000012114F8010B9047B442F8D32846FFF735
:10059000B5FF70BD2DE9F0410646002410687529AD
:1005A000314616A510D0FFF7BAFF002802DA404204
:1005B00013A507E031688A0701D512A502E04907B3
:1005C00004D511A5012401E0FFF7B2FF00210A22A2
:1005D00006F1240709E0B0FBF2FCB0FBF2F302FBEA
:1005E0001C00303078541846491C0028F3D12346AB
:1005F0002A463046BDE8F04100F0D9BA00000000BC
:100600002D0000002B00000020000000116802688F
:10061000006A530501D508700AE0D30501D50880AA
:1006200006E0130603D5C217C1E9000200E0086026
:100630000120704701694A1C02610878704700B5C3
:100640008FB0CDE901310021059105497944CDE90B
:1006500003101146684600F02BF90FB000BD0000F2
:10066000E5FFFFFFD1E900239A4202D2531C0B6041
:10067000107070472DE9FF5F15468A460446DFF883
:10068000AC80F8440027D8E900103E46CDE90010C0
:1006900010E03AF816106A4602A800F099FE411CD4
:1006A00007D02178890603D5E269391891420DD81F
:1006B0000744761C2078800602D5E069B84205DD43
:1006C000AE42E6DB3AF816000028E2D1A069C01B72
:1006D000A0612046FFF7FCFED8E90010CDE900102C
:1006E000002017E03AF818106A4602A800F070FEE1
:1006F000B0F1FF3F81460BD000250DF1080B05E05E
:10070000D4E901211BF8050090476D1C4D45F7D336
:1007100008F10100B0428046E4DB206A38442062E0
:100720002046FFF7EBFEBDE8FF9F00006694000047
:100730002DE9F0418046D21D22F007020025D2E9C2
:100740000002F52915A614D0011E72F1000106DA87
:100750000023D0EB030063EB020211A608E0D8F8F7
:1007600000108B0701D50FA602E0490701D50EA6A0
:1007700001251146002408F1240704E000F0D2F915
:1007800030323A55641C50EA0102F7D12B4632460A
:1007900021464046BDE8F04100F009BA00000000E3
:1007A0002D0000002B0000002000000030B40021CC
:1007B00000F1240408E002F00705D208303542EACF
:1007C0004372DB086554491C52EA0305F3D10468FF
:1007D000002310A2250708D504F020040C4304D000
:1007E000C46901230CA2641EC46130BC00F0DFB9EF
:1007F00010B5044621461068FFF79AFE02462046CF
:10080000BDE810400023D1E7D21D22F00701D1E955
:100810000023CBE70000000030000000F0B40D46DC
:100820000188090502D5214C7C4402E01F4C7C4420
:100830000E34002100F1240608E002F00F0712092F
:10084000E75D42EA03721B097754491C52EA030729
:10085000F3D102780023120704D5702D06D009B118
:10086000022311342246F0BC00F0A1B90123103458
:10087000F8E770B504460D4621461068FFF758FEAC
:10088000024629462046BDE870400023C6E7D21D37
:1008900022F00703D3E90023C0E70368126843F09E
:1008A000200303600823C3610023B7E7C892000058
:1008B0002DE9F05F894604464FF0000ADFF874B175
:1008C000FB44C0F820A02046E1688847002874D087
:1008D000252806D0D4E901219047206A401C2062D7
:1008E000F1E700265F462046E16888472028054654
:1008F00007DB312D05D2781910F8200C08B106431A
:10090000F1E7B00701D526F00406C4F81CA00027C3
:10091000C4F818A02A2D09D0284608F0E7F938B302
:1009200004EB8708303DC8F8185019E059F8041B4B
:10093000204604EB87029161E1688847012F054654
:1009400018D1E069002820DA26F020061DE0D8F84A
:10095000180000EB800005EB40003038C8F81800A4
:100960002046E1688847054608F0C0F90028EED126
:10097000012F0AD02E2D08D12046E16888477F1C20
:100980000546022F46F02006C4DBA069002803DAE2
:10099000404246F00106A061F00701D026F01006A3
:1009A0006C2D0BD0682D09D04C2D39D06A2D35D047
:1009B000742D35D07A2D33D016E038E0E1682F461B
:1009C00020468847B842054609D16C2F26D04FF4FF
:1009D0008060E168064320468847054604E06C2FA6
:1009E0001AD04FF4807006430DB3A5F141001928C9
:1009F00002D8203546F400664A462946204626603D
:100A00004E46FFF7B3FB80B101280BD0F61D26F050
:100A1000070000F1080956E74020E4E78020D8E706
:100A20000020D6E706F104094DE7284652E7206A80
:100A3000BDE8F09F5892000010B5002000F0ECFCDB
:100A4000FFF7F2FBBDE81040012000F043B810B5FD
:100A5000044602E0641C00F036F820780028F9D142
:100A600010BD10B5203AC0F00B80B1E81850A0E8D6
:100A70001850B1E81850A0E81850203ABFF4F5AF6C
:100A80005FEA027C24BFB1E81850A0E8185044BFC8
:100A900018C918C0BDE810405FEA827C24BF51F835
:100AA000043B40F8043B08BF7047D20728BF31F829
:100AB000023B48BF11F8012B28BF20F8023B48BF7A
:100AC00000F8012B704708B569468DF80000032037
:100AD000ABBE08BD01491820ABBEFEE726000200F0
:100AE00000487047F000002000487047F0000020E8
:100AF000034640688C46002818BF88423CBF034626
:100B00004068F8D318681844884207D00CF10300F5
:100B100020F00700001D411A521A0146081D0A6004
:100B2000FFF7F1BB30B5B0F10A0271F100034FEAF3
:100B3000900E4EEA817EB0EB0E0061EB91014FEA20
:100B4000101E4EEA017E10EB0E0041EB11114FEA30
:100B5000102E4EEA016E10EB0E0041EB11214FEA10
:100B6000104E4EEA014E10EB0E0041EB11414018C1
:100B700041F100014FEAD00040EA41704FEAD10153
:100B80004FEA810444EA907410EB800544EB0104C1
:100B90006D1944EB0404521BA3414FF0000348BFFE
:100BA0000A3200D530BD401C41F1000130BD2DE9B5
:100BB000F0470D4699469246044600F12408016824
:100BC000880604D5E06921F01001216000E00120D1
:100BD000A84201DD471B00E00027A1697A1902EB5A
:100BE0000900081AA0612078C00602D42046FFF749
:100BF0006FFC002608E0D4E901211AF806009047AE
:100C0000206A401C761C20624E45F4DB2078C0062A
:100C10000AD52046FFF75CFC06E0D4E9012130202C
:100C20009047206A401C2062381EA7F10107F4DCBF
:100C300007E0D4E9012118F805009047206A401C1C
:100C40002062281EA5F10105F3DC2046FFF756FCC3
:100C50002078000602D50220BDE8F0870120FBE7DE
:100C60002DE9FF4F0C461E464FF0FF378BB0D2E9FF
:100C70000001DDF860800A908A46C1F30A5505B983
:100C80003D46002108464FF00000BAF1000F00F485
:100C9000400005DA00EB80004FF4400101EA50000B
:100CA0004FEA9059B9F1010F00DDB9460A9850EAB0
:100CB0004A000ED044F61050A5F2FF3545432F14DC
:100CC000B8F1000F1ED07542291E1EDDC9F10002C9
:100CD0001CE0B8F1010F4FF0000001D0302103E01B
:100CE000F24305E02154401CB042FBDB30460022B9
:100CF000002121540B99C1F80880C1E900200FB0F0
:100D0000BDE8F08FBD1B6D1CDEE74A4600DA694284
:100D100006A800F001FC06AB93E8070003AB83E8EC
:100D2000070050460A9907F004FC8DE80700A0F57B
:100D300000501F3800900398002D0ADD42F21F0179
:100D40004A460844002303A90390684607F06EFE54
:100D500009E0A0F500504A461F38002303A903907C
:100D6000684607F078FE8DE807000004000C03D009
:100D70004FF0FF30410800E01046B8F1000F03D0FB
:100D80000022009215461EE0751E05D4FFF7CAFE2C
:100D9000303262556D1EF9D5B3460122084302D0A8
:100DA00000227F1C04E02078302801D100227F1E21
:100DB000002A099784D01DE0112D07DAFFF7B2FE53
:100DC000303262556D1C50EA0102F5D1084302D061
:100DD0000098C8B10EE00021681E05E0235C625C4B
:100DE00063542254401E491C8142F7DBAB46A81BCA
:100DF000401E0990002004F80B000B98099AC0F8D7
:100E00000880C0E9002B7AE711264FF0000857E769
:100E10002DE9F04F88460446D21D22F0070191B01B
:100E2000D1E90001CDE90A0107F04CFF02460B9819
:100E3000C00F01D02D2007E02068810701D52B20AD
:100E400002E0202101EAC000032A099001D0072A0C
:100E500005DB03464146204600F01EFB0BE12078EF
:100E6000800601D5E06900E00620B8F1650F8146F3
:100E700006D0B8F1660F18D0B8F1670F70D131E025
:100E80000020B9F1110F009001DB112301E009F1FD
:100E900001030AAA01A90CA8FFF7E2FEDDE90C7024
:100EA000002609F10105834647E001204B460090EA
:100EB0004FF000470AAA01A90CA8FFF7D1FEDDE90F
:100EC0000DB00C995D46002610B909F101000D180E
:100ED000B9EB050003D4C0F1FF3609F10105A5EB1C
:100EE00009002BE0B9F1010F01DA4FF001090020F0
:100EF000B9F1110F0090484601DD112300E00346CF
:100F00000AAA01A90CA8FFF7ABFEDDE90C704D465B
:100F100000268346207800070AD4AB4500DA5D46F8
:100F200001A8012D04DD411911F8011C302907D059
:100F30004F4502DA17F1040F04DA012082460FE070
:100F40006D1EEEE7002F02DCED1B3E4403E0781C33
:100F5000A84200DD7D1CB81B00F1010A4FF00047DC
:100F60002078000703D4AA4501DB4FF0FF3A0021A7
:100F7000B7F1004F0DF143088DF8431024D0022043
:100F80002B23002F01DA7F422D230A21021EA0F11C
:100F9000010000DC5FB197FBF1FC97FBF1F201FB74
:100FA0001C7C17460CF1300C08F801CDEEE7A8F1D7
:100FB000010003702188090501D5452100E0652164
:100FC000A0F1010800F8011C09980FA9A1EB08077E
:100FD000FF1D00B10120411901EBEA70A1693844FD
:100FE000081A401EA0612078C00602D42046FFF7F0
:100FF0006FFA099828B1D4E901219047206A401C72
:1010000020622078C00622D52046FFF761FA1EE054
:10101000002E04DBB34502DD01A8805D00E0302036
:10102000D4E901219047206A401C2062761CAAF175
:1010300001005FEA000A0AD100F02AFAC0680168DC
:10104000405CD4E901219047206A401C2062281EA0
:10105000A5F10105DCDC07E0D4E9012118F8010B5A
:101060009047206A401C2062381EA7F10107F3DC7C
:101070002046FFF743FA032011B041E62DE9F04F77
:1010800004460D46D21D22F0070089B0D0E9009732
:101090004846394607F016FE0246F80F01D02D23C8
:1010A00007E02068810701D52B2302E0202101EA17
:1010B000C0038DF820300BB1012000E00020032A8E
:1010C000824601D0072A04DB2946204600F0E4F9D5
:1010D0003FE12078800601D40D2500E0E569C7F3E3
:1010E0000A560D2D49DA00214FEA175B08464FF0EA
:1010F0000000002F00F4400007DA00EB80004FF4FE
:10110000400100EBD07001EA60008115012901DD8A
:101110004FF0FF3100224FEA850CBCF1180F06D3C7
:101120001346ACF118004FF08052C24003E04FF478
:10113000801323FA0CF30CF10C0CBCF1200F04D338
:10114000ACF1200C09FA0CF001E007FA0CF00029D0
:101150004FF0004801DD18B90FE00ED140450CD327
:1011600019EB02095F4121B9404502D19F4329EAA9
:101170000209BBEB175F00D0761C2088000502D562
:101180007B48784402E07A487844193808AA30232A
:1011900002F80A30037C0AF10101002E0AF1020A6A
:1011A00053546A4602DC4FF0300101E04FF0310148
:1011B0004FF001088DF8001002D0A6F2FF3603E0D0
:1011C00059EA470100D06B4E002D02DC2178090757
:1011D00004D54FF002082E218DF80110C4460021DD
:1011E0000BE0C7F303433F01C35C491C6D1E02F8CB
:1011F0000830052908F1010801DA002DF1DC002191
:101200000CE000EB1973491C1B786D1E082902F8CD
:1012100008304FEA091908F1010801DA002DF0DC65
:1012200021688B0602D516E0A8F10108E04505DD2E
:1012300002EB080313F8013C302BF5D0B8F1000F96
:1012400009DD02EB080313F8013C2E2B03D109073B
:1012500001D4A8F10108002D05DD3E2102F8081097
:101260006D1E08F10108407C002E02F8080008F10C
:10127000010804DA2D20764202F8080002E02B2053
:1012800002F808000A214FF47A70864208F101083A
:101290000BDB96FBF0F3303302F8083096FBF0F3EB
:1012A00008F1010800FB136601E0642E0CDB6420EA
:1012B00096FBF0F3303302F8083096FBF0F308F1B8
:1012C000010800FB136601E00A2E06DB96FBF1F035
:1012D000303002F8080008F1010896FBF1F001FB3C
:1012E0001060303002F80800A16908F1010808EB2D
:1012F000050202EB0A00081AA0612078C00602D499
:101300002046FFF7E5F8216A08AE01EB0A002062EB
:1013100004E0D4E9012116F8010B9047BAF1010A63
:10132000F7D22078C00602D52046FFF7D1F86E46E6
:1013300009E016F8010B3E280FD0D4E901219047AF
:10134000206A401C2062B8F10108F2D22046FFF763
:10135000D5F809B00320BDE8F08F206A2844206248
:1013600003E0D4E90121302090476D1EEBD3F8E76C
:10137000BA89000002FCFFFF10B5436913B1AFF357
:10138000008001E0FFF7DDF8012010BD127800F1C8
:1013900024010A7000224A700122EDE711684FF023
:1013A000FF32E9E710B5436913B1AFF3008001E004
:1013B000FFF760F9012010BD128800F1240182843A
:1013C0000022C2840122EDE711684FF0FF32E9E705
:1013D0002DE9F04116460C46054600F051F8036829
:1013E00093F80101012807D0FF2C12D8185D80B1B5
:1013F00001202C70BDE8F081D3F807013246214668
:1014000003F20713C7182846BC46BDE8F041002385
:1014100060474FF0FF30EDE710B500F0FDF8BDE894
:10142000104000F0F4B810B500F00EF9BDE810401F
:1014300000F0EDB870477546FFF752FBAE46050069
:101440006946534620F00700854618B020B5FEF7E0
:101450000BFFBDE820404FF000064FF000074FF0B3
:1014600000084FF0000BAC46ACE8C009ACE8C0097E
:10147000ACE8C009ACE8C00921F007018D4670470F
:1014800010B500F005F8001D10BD00BF2D7900005B
:1014900000487047100100202DE9F0411F46044626
:1014A00003260168072A01F4006004DB08B116A5D1
:1014B00005E016A503E008B115A500E015A521F08B
:1014C00010002060A069C01EA0610FB1401EA06185
:1014D0002046FEF7FDFF4FB1D4E901213846904781
:1014E000206A401C2062C01C206206E0206AFAE7E5
:1014F000D4E9012115F8010B9047761EF8D2204659
:10150000FEF7FCFFBDE8F0814E414E006E616E00BB
:10151000494E4600696E66002DE9F0478146164641
:101520008AB0354878440DC88DE80D0032487844BB
:10153000801C03AC0DC884E80D0041F69B300844C4
:10154000372190FBF1F290FBF1F5A5F1800501FB4D
:1015500012041B3C02D56442012000E00020DFF8A9
:1015600098A080460027FA44AAF1BE0A0EE0E007E0
:101570000AD03246684607EB470101230AEB810196
:1015800007F069FA8DE8070064107F1C002CEED18B
:10159000194F7F44AE3F19E0E80715D007EB041060
:1015A0000DF1180A90E80E008AE80E00C068F042BB
:1015B00001D1981908903246012306A903A807F023
:1015C0004AFA03AB83E807006D10641C002DE3D1D9
:1015D0004FF0010332466946B8F1000F03A802D06C
:1015E00007F024FA01E007F036FAC9E90001C9F86A
:1015F00008200AB0BDE8F087A886000010B50446B0
:10160000AFF300802046BDE81040FEF718BE00286A
:1016100001D0FFF75FBA704710B5002102A000F0BB
:101620003BF8012010BD0000534947414252543A53
:101630002041626E6F726D616C207465726D696EAF
:101640006174696F6E00000010B5012805D000219B
:1016500003A000F021F8012010BD09A1F8E7000067
:1016600053494752544D454D3A204F7574206F668B
:101670002068656170206D656D6F727900000000F3
:101680003A2048656170206D656D6F727920636FD7
:10169000727275707465640070B505460C460A2058
:1016A00000E06D1CFFF70FFA35B128780028F8D15B
:1016B00002E0641CFFF707FA14B120780028F8D183
:1016C000BDE870400A20FFF7FEB9000000000000EE
:1016D00030B44FF0013C50F8042B51F8043BCCFAE5
:1016E00052F4D51A20D1FCB950F8042B51F8043B20
:1016F000CCFA52F4D51A17D1B4B950F8042B51F8DA
:10170000043BCCFA52F4D51A0ED16CB950F8042B24
:1017100051F8043BCCFA52F4D51A05D1002CDAD09A
:1017200030BC4FF00000704729BAB1FA81F111F0D6
:101730001801D1F120008440F2D1CA40CB4012F010
:10174000FF0213F0FF0330BCD01A704753EA020CBB
:1017500000F069802DE9F04B4FF00006002B1FBF11
:10176000B3FA83F503FA05F424FA05F65E4012BFD6
:101770001643B2FA82F502FA05F4C5F120051EBF40
:1017800022FA05FC44EA0C04203556EA044C4FEAE0
:10179000144418BF641C4FF000084FF00009904239
:1017A00071EB030C39D3002919BFB1FA81F701FAA3
:1017B00007F6B0FA80F700FA07F6C7F120071EBF58
:1017C00020FA07FC46EA0C062037B6FBF4FCA7EB30
:1017D0000507103F07F01F0BCBF120062CFA06F689
:1017E0000CFA0BFB44BFB3460026202FA4BF5E4675
:1017F0004FF0000B5BEA060C08BF4FF0010B19EB32
:101800000B0948EB0608ABFB027C06FB02CC0BFB8A
:1018100003CCC01B71EB0C01C1E70B4602464146ED
:101820004846BDE8F08B13B5084318BF4FF0FF30B2
:101830000146AFF30080BDE81C40704702F0FF0393
:1018400043EA032242EA024200F002B84FF00002EB
:101850000429C0F0128010F0030C00F01B80CCF1C2
:10186000040CBCF1020F18BF00F8012BA8BF20F830
:10187000022BA1EB0C0100F00DB85FEAC17C24BF84
:1018800000F8012B00F8012B48BF00F8012B70472E
:101890004FF0000200B5134694469646203922BF09
:1018A000A0E80C50A0E80C50B1F12001BFF4F7AF54
:1018B000090728BFA0E80C5048BF0CC05DF804EB36
:1018C000890028BF40F8042B08BF704748BF20F8A4
:1018D000022B11F0804F18BF00F8012B7047000059
:1018E00008487CB57844009007487844009C054639
:1018F000019004E02046016808448047241DAC4262
:10190000F8D17CBD749F0000729F000070B5E0B1FB
:101910000C4619B3154652B3064620461821FFF768
:10192000B7FF3069C4E9020604202070308A718A4A
:10193000208200206082A1822878326A801A48437F
:10194000E08001212046A17570BD4BF2923117A0B5
:10195000C0F600014FF4CB72FEF71AFD4BF2923144
:101960000CA0C0F6000140F29712FEF711FD4BF2F9
:10197000923103A0C0F600014FF4CC72FEF708FDCF
:101980004E554C4C20213D20706368436861724382
:101990006F6465004E554C4C20213D2070744465A9
:1019A0007363726970746F72000000004E554C4C86
:1019B00020213D207074466F6E740000FEE7704772
:1019C0002DE9F0419846154602440B44013A013B8B
:1019D00092B29BB280B289B200F02FF8280408BFFF
:1019E000BDE8F081069818220021C4F600024FEAF3
:1019F000084C1FFA85FE4FF400540826002700BF4C
:101A0000BCF1000F11D001EB08039BB230F811506C
:101A100001316DBAC2F81048C2F8FC538DB2AB4226
:101A200016611660C2F80048F0D10137BBB27345A9
:101A3000E6D3BDE8F0810000FEE770B540F2180C77
:101A4000C4F6000C4FF0020E4FF400542A25CCF8D7
:101A500010E0CCF81048CCF8FC530825060AC0B2B8
:101A6000CCF81050CCF80050CCF800E0CCF800488E
:101A7000CCF81048CCF8FC63CCF81050CCF80050EF
:101A8000CCF80048CCF81048CCF8FC03100ACCF88D
:101A90001050CCF80050CCF80048CCF81048CCF8E6
:101AA000FC03D0B2CCF81050CCF80050CCF8004871
:101AB000CCF81048CCF8FC032B20CCF81050CCF814
:101AC0000050CCF80048CCF810E0CCF81048CCF826
:101AD000FC03080ACCF81050CCF80050CCF800E019
:101AE000CCF80048CCF81048CCF8FC03C8B2CCF8CD
:101AF0001050CCF80050CCF80048CCF81048CCF886
:101B0000FC03180ACCF81050CCF80050CCF8004870
:101B1000CCF81048CCF8FC03D8B2CCF81050CCF874
:101B20000050CCF80048CCF81048CCF8FC032C202E
:101B3000CCF81050CCF80050CCF80048CCF810E0AD
:101B4000CCF81048CCF8FC03CCF81050CCF800507E
:101B5000CCF800E0CCF8004870BDF0B583B0182692
:101B6000C4F600064FF0012006F57A7402904FF695
:101B7000FF7501A92046019505F07AF94FF4005050
:101B80000421C6F810083161D6F8F8733160C6F840
:101B900000080020C0F20120CDE9015001A9204633
:101BA00005F066F9B8B203B0F0BD0000FEE770477B
:101BB0007047704740F25010C2F2000001880131B6
:101BC000018041F24420C2F200000168013101604D
:101BD0007047000041F20000C4F20200016841F0C9
:101BE0000101016001688907FCD5416821F003010A
:101BF000416000BF416811F00C0FFBD101684FF646
:101C0000FF72CFF6F262114001600021416041F69F
:101C10001071C1624FF4801101634FF41F018160A4
:101C20004EF60850CEF200004FF0006101607047A0
:101C3000FEE700002DE9F041416840F2D012C2F207
:101C40000002002908BF02F120014A68127802F060
:101C50000E02062A17D1B0F91E70012F10DBC468DE
:101C6000B0F9145091F82080B0F91C60012E04DB0B
:101C7000204631464246FFF7E1FD013F2C44F5D1B5
:101C80000020BDE8F0814BF2ED3103A0C0F6000169
:101C900040F27D12FEF77CFB41524D5F32445F43C0
:101CA0004F4C4F55525F535A5F38424954203D3D87
:101CB000204F505F434F52452E70744F702D3E4958
:101CC0006E666F2E436F6C6F75722E7533436F6C3B
:101CD0006F7572535A000000E0B1418ACA0719D0EB
:101CE000890748BFFEF70FBB40F26822EFF310816F
:101CF00072B6C2F20002136F10674360B2F8880038
:101D000047F6FF73984200F10100A2F8880002D262
:101D100081F3108870474BF2681103A0C0F60001F0
:101D200040F24132FEF734FB746869732E416461FE
:101D3000707465722E4F7074696D697A6564446958
:101D4000727479526567696F6E732E694672656544
:101D5000436F756E74203E2030000000B0B540F235
:101D60006821EFF3108072B6C2F200010C6F74B1FB
:101D70006268B1F888300A675A1E13B2B3F1FF3FA8
:101D8000A1F8882016DD80F31088012509E080F392
:101D900010881420FEF788FA0446800713D13CB15E
:101DA000032520461421FFF773FD65822046B0BD50
:101DB0000024FBE74BF2681105A0C0F6000140F2D9
:101DC0005B32FEF7E5FA0FA018A1BD22FEF7E0FA9C
:101DD000746869732E416461707465722E4F7074FB
:101DE000696D697A65644469727479526567696F6F
:101DF0006E732E6946726565436F756E74203E3D45
:101E00002030000030203D3D20282875696E747018
:101E100074725F74297042756666202620286E41B0
:101E20006C69676E202D2031292900005254452FFE
:101E3000416363656C65726174696F6E2F61726D69
:101E40005F32642E6300000090B140F26822EFF32D
:101E5000108172B6C2F20002D2F8B430036092F878
:101E6000A530C2F8B400581C82F8A50081F3108890
:101E7000704780B540F26821C2F2000191F8A620B7
:101E8000086E93061ED428B3427C920746D400689D
:101E900091F8A7200866D0B9002093064FF0400EB5
:101EA0000DD40B6C5BB1130709D4D1F848C0BCF159
:101EB000000F1EBFC1F860C001204FF0A00E42EA23
:101EC0000E0230E04068F0B191F8A720086642F0B9
:101ED000800227E091F8A7E000205FEA8E634FF0D0
:101EE00040030DD40A6C5AB15FEA0E7208D4D1F8DF
:101EF00048C0BCF1000F1EBFC1F860C00120A02384
:101F000043EA0E020FE002F0DF0091F8A72081F80B
:101F1000A6000020086642F0400204E091F8A70005
:101F200040F08002012081F8A72080BD40F26822A5
:101F3000EFF3108172B6C2F2000292F8A53073B1CD
:101F4000D2F8B400013B82F8A53040B10368C2F872
:101F5000B4300023036081F310884260704781F33E
:101F600010880020704740F26821EFF3108372B6AA
:101F7000C2F20001D1F8B82040B182421FD1002244
:101F8000C1F8B82083F31088024605E00020C1F8AC
:101F9000B80083F31088F2B10020D060EFF3108016
:101FA00072B6D1F8B430136091F8A530C1F8B420FE
:101FB0005A1C81F8A52080F3108803F033BA4BF245
:101FC00091404BF26811C0F60000C0F6000140F2EB
:101FD0000722FEF7DDF94BF291404BF26811C0F693
:101FE0000000C0F600014FF40372FEF7D1F90000C3
:101FF0002DE9F04F0A9CB4F902C0BCF1010FB8BF43
:10200000BDE8F08F0732099D12B2DDF82CE04FEAEF
:10201000E20901F007010122B4F9004002FA01F8D7
:102020004FEA450A4FF0000B4FF4FF77012C13DB0A
:1020300000214546024600BF1678354218BF23F8F6
:1020400011E015F07F0607EA450501F1010104BF23
:10205000013201258C42EFD10BF1010B4844E345DD
:102060005344E3D1BDE8F08F2DE9F041ACB090E8E6
:10207000F80140F2D01E0393D0E906300797CDF85F
:102080002080CDE90930D1E9008301F10807D1E9C9
:102090000601C2F2000E049405950696F0CF4FF0AB
:1020A000000CCDE91101DEF82400ADF808C010974E
:1020B0000F960E950D94CDE90B8313928068CDF8A1
:1020C00000C001680EF12000019019B168468847F0
:1020D000044600E0FC2402F0BBF960B22CB0BDE87D
:1020E000F0812DE9F043ADB090E8F0030797049438
:1020F000D0E9064002F1080705950696CDF8208044
:10210000CDF82490CDE90A40D2E90089E0CFD2E9A8
:102110000504D26940F2D01C10970F960E95CDE9B8
:102120001104CDE9132391E8FD00C2F2000CCDE9C2
:102130000C89C9690DF154084FF0000E88E87D0044
:10214000DCF82400ADF80CE01C911B978068CDF8FA
:1021500004E001680CF12000029019B101A8884741
:10216000044600E0FC2402F073F960B22DB0BDE833
:10217000F0832DE9F04FADB040F2D018C2F2000864
:10218000002608F1200501960295ADF80C60D0E913
:10219000006500F1080E14469EE88440D0E905ABC6
:1021A000C069CDE9046506AD85E884400B90D3E9AC
:1021B0000276D3E90450CDE909ABD3E900EAD3E9CB
:1021C0000623DDE9369CCDE91050CDE90E7612A844
:1021D000D1E90465CDE90CEA80E80C10D1E900C230
:1021E000D1E90237D1E906010DF1040ACDE91965FB
:1021F0000AF17005CDE91B0128464021CDE91737CA
:10220000CDE915C2FFF744FB54B194E88F00D4E93F
:10221000056CE46985E88F00C5E9056CEC6102E0B6
:1022200001208DF87F00B9F1000F0ED099E88E00E3
:10223000D9E90465D9E9064C0AF1900080E88E00DE
:10224000C0E90465C0E9064C02E001208DF89F005A
:10225000D8F824008068016819B101A888470446AD
:1022600000E0FC2402F0F4F860B22DB0BDE8F08F7D
:102270002DE9F047ACB040F2D018C2F200081C467D
:10228000002308F12007D0E904E90D4600930197E7
:10229000ADF80830D0E90037D0E90261D0E906A0F6
:1022A000CDE907E9D2E900E9CDE90561CDE909A069
:1022B000D2E90460CDE90337D2E90237D2E9061248
:1022C000CDE90BE9E946CDE90F6011A809F1500607
:1022D000DDF8D0C080E8061030464021CDE90D374A
:1022E000FFF7D6FA35B195E88F50ED6986E88F5043
:1022F000F56102E001208DF85B0074B194E88E0076
:10230000D4E90465D4E906C409F1700080E88E00C0
:10231000C0E90465C0E906C402E001208DF87B0035
:10232000D8F824008068016819B1684688470446D7
:1023300000E0FC2402F08CF860B22CB0BDE8F0871D
:10234000F0B5ADB0D0E9004200F10807E8CF049441
:10235000D0E9064040F2D01E0592069307950896F4
:102360000997CDE90A4091E8FD00C2F2000EC96963
:102370000C90DEF82400119610950F940E930D9298
:10238000139112974FF0000CC068ADF80CC00168B3
:102390000EF12000CDF804C0029019B101A88847C1
:1023A000044600E0FC2402F053F860B22DB0F0BD0A
:1023B0002DE9F043ADB040F2D018C2F200081C463F
:1023C0000D46002108F1200301910293ADF80C1095
:1023D00090E88A0000F10C0E9EE84050D0E906908B
:1023E000049107A981E84050CDE90A90D2E9046040
:1023F00005930697D2E900CED2E90237D2E9061258
:102400000DF10409CDE9106009F14C06CDE9121275
:1024100030464021CDE90E37CDE90CCEFFF738FA32
:1024200035B195E88F50ED6986E88F50F56102E08F
:1024300001208DF85B0074B194E88E00D4E9046546
:10244000D4E906C409F16C0080E88E00C0E9046597
:10245000C0E906C402E001208DF87B00D8F8240012
:10246000C068016819B101A88847044600E0FC244F
:1024700001F0EEFF60B22DB0BDE8F083F0B5ADB075
:10248000D0E9004200F10807E8CF0494D0E9064003
:1024900040F2D01E05920693079508960997CDE95C
:1024A0000A4091E8FD00C2F2000EC9694FF0000C2D
:1024B0000C90DEF82400ADF80CC0119610950F9426
:1024C0000E930D92139112978068CDF804C00168A5
:1024D0000EF12000029019B101A88847044600E0DF
:1024E000FC2401F0B5FF60B22DB0F0BD2DE9F04F36
:1024F0009BB0269F8A46DDE924980646384600218F
:102500001D469346002406F075FF002840F0E08148
:1025100040F20360CDE9130440F2A800C2F20000CB
:10252000CDE90379DBF81010D0E90B07CDF8148062
:10253000CDE908A60691CDE9151720F07F41384670
:10254000FFF784F90BA919AA28460123CDE9004415
:102550000795012402F087F8BDF93EE0BEF1010FB6
:1025600034DBDDE90BA0BDF8341000F007000731C3
:10257000BBF910B009B204FA00F0BDF93C60CB1011
:102580000A9000244FF4FF75FF2000BF012E18DBD6
:10259000DDF828C04FF00009514600BF91F80080D7
:1025A0001CEA080F18BF07F809001CF07F0205EAB3
:1025B0004C0C09F1010904BF01314FF0010C4E45EB
:1025C000ECD101349A4474455F44DFD107980BA9DC
:1025D000856800200E90CDE90B0019900698043113
:1025E0001A9019A800220D9504F05EF838B11398DE
:1025F0000B9000F0EA008DF82C0013A80E900898BC
:102600000BACD0F800A0B0F90490B0F906702046E9
:10261000082102F01CF9002800F08881280C00B283
:1026200040F2D01629B2C003C2F200060B9AC0EAEB
:10263000610049F6C0413346C0F6000143F84C2F13
:1026400043F8281C049900259983059943E903352B
:1026500083F83C1042F001011970039943F8044CCF
:10266000C3E90155C3E90355C3E9051019A920467B
:102670000022002301F02AFF002800F05F810BA850
:102680000021F56502F0C0FDB6F86410B6F86620CA
:10269000DDF86480D6E9175B014402EB1040A6F830
:1026A0006410A6F8660006974FEA184117AF404637
:1026B0002A465B460591CDF828B0009702F04AF80B
:1026C000179F4FF60064C4F2FF64189E38462146F7
:1026D000CDF81C90CDF820A006F09AFE0028B9464F
:1026E000304621461CBF4FF60069C4F2FF6906F070
:1026F0008FFE0028B24638464FF047411CBF4FF6C8
:10270000006AC4F2FF6A06F098FE002830464FF0D7
:10271000474118BF4FF0474706F08FFE002818BF0B
:102720004FF04746BDF86A002A4600EB1840411EAC
:1027300040465B4617AC04910395009402F00AF8FA
:10274000DDE9174B4846214606F077FE0028504643
:10275000594608BFA14606F070FE002838462146BB
:1027600008BFDA4606F054FE00283046594608BF36
:10277000274606F04DFE0028BDF8680008BF5E46FB
:102780004044DDF828B0A0F10108059940462A46EA
:102790005B4617AD009501F0DDFFDDE917544846B3
:1027A000294606F04AFE00285046214608BFA946A1
:1027B00006F043FE00283846294608BFA24606F028
:1027C00027FE00283046214608BF2F4606F020FE8F
:1027D000002808BF2646DDE9032140465B4617ADC9
:1027E000009501F0B7FFDDE917544846294606F089
:1027F00024FE00285046214608BFA94606F01DFECB
:1028000000283846294608BFA24606F001FE0028E7
:102810003046214608BF2F4606F0FAFD0025CBF6CC
:10282000807500284846294608BF264606F080FDE8
:1028300004465046294606F07BFD054638464FF0D3
:102840007E5106F075FD804630464FF07E5106F011
:102850006FFD064620464FF07C5106F069FD06F0FC
:10286000F5FE074628464FF07C5106F061FD06F064
:10287000EDFE40F2D01BC2F2000BDDF81C90ABF86D
:102880006E003046DDF820A02946ABF86C7007F0EA
:10289000B3F843F23335C3F6F375294606F048FD25
:1028A00006F0D4FEABF856004046069F214607F0DE
:1028B000A3F8294606F03CFD06F0C8FE0A99ABF8DD
:1028C00054004FF07E5006F0CBFDCBF8600035E0B1
:1028D0002846012101F0BBFF002800F07B8040F278
:1028E000D010C2F20000428DEFF3108172B6D20612
:1028F00074D4032280F8292000224285438D43F0BE
:102900001003438581F3108849F6A041C0F6000109
:102910004162C0E90E6AC0E91052A0F8489080F800
:102920004C801BB0BDE8F04F00F07EB840F2D010F4
:10293000C2F20000416C41F00041416440F2D01409
:10294000C2F20004618DEFF3108372B60998C906D4
:102950003DD4032184F8291000216185628D42F065
:102960001002628583F31088626C002A34D4826876
:102970001991616A1A9289780023214401F13C027D
:1029800019A903F0DAFE0028A0634FF000002CD054
:10299000E063606A216C8078896820448163E16B20
:1029A00041BB203000F11403E363791003894789A8
:1029B000468A058A0AEB690201EB1A41F71BEB1AFA
:1029C00039441A448282C18200F02EF809E083F370
:1029D000108805E0FE2004E0F32002E081F3108877
:1029E000012040B21BB0BDE8F08F402184F82900DF
:1029F0006185F6E74BF2E22103A0C0F600014FF437
:102A00002C72FDF7C5FC00BF4E554C4C203D3D20BF
:102A1000746869732E5461726765742E70745265A0
:102A200067696F6E000000002DE9F047D6B040F2F4
:102A3000D016C2F20006706A407800F00300022847
:102A400019D003282ED1B06B411C01D1F069B063BD
:102A5000F16B0022CDE92C22CDE92A22219220928D
:102A600011B30D684F68290C41EA07444FEA174A31
:102A7000CDE918571EE0B06B411C01D1F069B0637D
:102A8000F16B00220029CDE90C22CDE90A2209923E
:102A9000089274D00F684A68390C41EA0245CDE9C2
:102AA000067270E0FC2038E18768002419974FEA2D
:102AB000174A002514A90AAA002301F007FD0028DF
:102AC00000F026810A99B06B149114A92AAA012357
:102AD00003F033FE002800F0C9818046BDF82800CD
:102AE000BDF82A10281A756C0FFA80F9ADF860004D
:102AF000601A04B2E907ADF8620023D0B9F1FF3FD4
:102B00000EDC306CB0F9080099FBF0F101FB10907D
:102B100009EB0701091A8146ADF86000ADF86410B1
:102B2000B4F1FF3F0EDC306CB0F90A0094FBF0F119
:102B300001FB104004EB0A01091A0446ADF86200DB
:102B4000ADF86610D8F8080018A9219020A8024610
:102B500003F0AAFD002800F0DB800FFA89F7002FB0
:102B600000F1E68020B2B0F1FF3F40F3E180306C2D
:102B700018AA41462B4602F018FB0546C9E08168B9
:102B80000025079100272AA920AA002301F09EFC16
:102B9000002800F0BD802099B06B2A912AA90AAACA
:102BA000012303F0CAFD002800F06C810446BDF843
:102BB0008000BDF88210381AADF81800681AA168B4
:102BC000ADF81A0008A8099106A9024603F06CFDA9
:102BD000002800F09D800020CDE90400CDE902002E
:102BE00006A902AA2046012303F0A7FD002800F051
:102BF0008F80706A017801F00E02052AC0F0118101
:102C0000C1F342010127407807FA01F1299100251B
:102C1000C30902A820A929AACDE9005701F023FD84
:102C2000706A407810F00C0F00F0FD80D6E90F10AC
:102C300021B9049A0021CDE9121212A94A68096843
:102C4000199202891891511E4289B1FA81F14B09FA
:102C5000511EB1FA81F118AC4F092AAA21460097FA
:102C600001F038FE04F10C010022002301F02EFCDB
:102C7000002800F0D8800446B06B082187681191C5
:102C800000214FF0000802F0BFFA736A1B995B78CD
:102C90001C9A1B070F920E9123D593B2012B4FEA7A
:102CA00012430BD0BDF88CE00D1ABDF890C07544EE
:102CB000ADF83850D51B6544ADF83C50012B10D011
:102CC000090C41EA0241BDF88E20A1EB1040BDF88D
:102CD00092501044ADF83A00A3EB17402844ADF8E9
:102CE0003E000EA914AA2046002303F026FD18A9D1
:102CF00011AA0123CDF80080CDF8048001F0B3FCC7
:102D0000002800F0908020A818A9FFF7B7FB34E74F
:102D1000FD25E8B2FD3818BF2846202101EA9001C0
:102D2000403186F8290040B2718556B0BDE8F08781
:102D300025F0010318A914AA404602F0D6F9054669
:102D40000028E6D4736CD807E3D0BDF95400BDF970
:102D5000841081421EDDDDE92052091ACDE90A52B4
:102D6000ADF82C1021B228440029ADF8280006DC6B
:102D7000BDF85600ADF82A40001BADF82E000AA998
:102D80004046002202F0B1F90546B0F1FF3F01DCF8
:102D9000E81CBED1BDF95600BDF98610814220DD88
:102DA000DDE92032091A00EB1340002FCDE90A3289
:102DB000ADF82E10ADF82A0007DCBDF85400ADF8D0
:102DC0002890A0EB0900ADF82C00736C0AA94046CE
:102DD000002202F08AF90546B0F1FF3F01DCE81C51
:102DE00097D1BDF95400BDF98420824291DDBDF92F
:102DF0005610BDF986308B427FF78BAF209F121A99
:102E00003844ADF82C205A1AADF8280001EB1741D0
:102E1000D6E91003ADF82E20ADF82A100AAA4146D3
:102E2000A9E6FC2575E72AA8B021FEF731FDDDE90A
:102E3000242106F12000CDE93121DDE9223220995B
:102E40003092219A2D91CDE92E23269A27993392FB
:102E5000726A349191682B90096819B12AA8884741
:102E6000054600E0FC2501F0F3FA52E74BF29750DB
:102E70004BF28021C0F60000C0F6000140F226723D
:102E8000FDF786FA4BF297504BF28021C0F6000016
:102E9000C0F600014FF4D962FDF77AFA2DE9F04F40
:102EA000E7B0002A00F0558340F2D019C2F20009C1
:102EB0000646D9F82400884601780127C1F342016B
:102EC00007FA01F13991CDE9371141789B46144653
:102ED0000822C8064FF00005369202D44FF0000ACF
:102EE0000FE0D9F84800CB090EA937AACDE900B503
:102EF00001F0B9FB002800F0AF808246D9F8240029
:102F00004178CB092EA938AA3046CDE900B501F0A9
:102F1000AAFB06461EA939AA20460023CDE9005780
:102F200001F0A1FB002E4FF0FD0400F00E830028FD
:102F300000F00B83D9F824004178C80667D448070D
:102F40001ED5002726A936AA40460123CDE900B7A1
:102F500001F089FBBDF9A810BDF98830BDF9AA20A0
:102F6000BDF98A709942B8BF0B46BA42B8BF17463E
:102F7000D9F82410ADF8A830ADF8AA704978804689
:102F80000807CDF8108065D5D9F84C0016A90C318A
:102F900000220023002701F099FA002800F0A48005
:102FA0000446D9F83800082187680A9100214FF0BB
:102FB000000802F029F9BDF88410BDF888300A1A1B
:102FC000D4E90115DB1B0A44CDE93A15ADF8E82038
:102FD0002A0C2B44012AADF8EC300ED0BDF8863017
:102FE000BDF88A50A3EB1040A5EB174300EB11404E
:102FF000ADF8EA009818ADF8EE003AA906AA204606
:10300000002303F09AFB012716A90AAA66E04807E5
:1030100019D526A9D9F85C0001F10C04214600223B
:1030200000234FF0000801F051FA60B10AAA2146CE
:10303000002303F082FB26A936AA0123CDE900B8BC
:1030400001F011FB8046D9F82400CDF810804078BB
:10305000000703D4002747E0FD2476E2D9F860009A
:1030600016A90C3100220023002701F02FFAD8B353
:103070000446D9F8380008218768059100214FF0EF
:10308000000802F0C1F8BDF88410BDF888300A1AB3
:10309000D4E90115DB1B0A44CDE93A15ADF8E82067
:1030A0002A0C2B44012AADF8EC300ED0BDF8863046
:1030B000BDF88A50A3EB1040A5EB174300EB11407D
:1030C000ADF8EA009818ADF8EE003AA906AA204635
:1030D000002303F032FB012716A905AA0123CDE93D
:1030E000008701F0C0FA0746BDF98800BDF9C82085
:1030F000BDF98A10BDF9CA3082421FFA80F8B8BF04
:1031000010468CB28B42B8BF1946C0EA0142D9F8CA
:10311000249032925FEACB7199F801002EA901F157
:1031200010036AD1C006039200F1DD80389A0DF1D8
:10313000B80A30465146CDF800B001F023F999F8AD
:103140000100400720D50498F0B1BDF9A800BDF9F1
:10315000C850BDF9AA20A4463C46BDF9CA70A84291
:1031600026A9B8BF0546ADF8A850BA42B8BF174661
:10317000369A049801F11003ADF8AA702746644608
:10318000CDF800B001F0FEF887B1BDF968100FFA74
:1031900088F0BDF96A208142B8BF0846ADF86800E2
:1031A00020B28242B8BF1046ADF86A00B846BBF103
:1031B000000F40F0828199F80300022840F07D81E1
:1031C0003078049F00F00901092940F08F8173696C
:1031D000002B00F0AA81022161F35F101E9930706C
:1031E000BDF88000F160708030690AF10C02314650
:1031F000984701F02DF90024A7E1C10600F1E7800E
:10320000389A2EA93046CDF800B001F0BBF899F8F5
:103210000100400720D50498F0B1BDF9A800A446EC
:103220003C46BDF9C870BDF9AA20BDF9CA50B842E4
:1032300026A9B8BF0746ADF8A870AA42B8BF154680
:10324000369A049801F1100327466446ADF8AA5057
:10325000CDF800B001F096F840F2D0193D46C2F228
:10326000000987B1BDF968100FFA88F0BDF96A202E
:103270008142B8BF0846ADF8680020B28242B8BFAC
:103280001046ADF86A002EA9304601F024FC049FD8
:103290000446002840F0598126AE3846314601F0F8
:1032A0001AFC0446002840F050810DF158082846C9
:1032B000414601F010FC0446002840F04681D9F850
:1032C0002400407810F00C0F00F03381002F08BF6D
:1032D0003E46002D08BFA8462EA81EAA31464346EA
:1032E000FFF766F830E1379A0EA901F11003504656
:1032F000CDF800B001F046F899F8010040071CD560
:103300000498D0B1BDF9A800BDF94860BDF9AA2064
:10331000BDF94A50B04226A9B8BF0646ADF8A8602C
:10332000AA42B8BF1546369A049801F11003ADF8C9
:10333000AA50CDF800B001F025F840F2D0193D4672
:10334000C2F2000987B1BDF968100FFA88F0BDF923
:103350006A208142B8BF0846ADF8680020B28242B8
:10336000B8BF1046ADF86A000EA9504601F0B3FB95
:10337000049E0446002840F0E88026AF30463946D7
:1033800001F0A9FB0446002840F0DF800DF1580849
:103390002846414601F09FFB0446002840F0D580B6
:1033A000D9F82400407810F00C0F00F0C780002EF0
:1033B00008BF3746002D08BFA8463A46039F2EA8EF
:1033C0000EA91EABCDE90087FEF7D3FEBCE0410796
:1033D00000F1CB80049C000700F1D080379A0EA941
:1033E00001F110035046CDF800B000F0CBFF99F882
:1033F000010040071BD5D4B1BDF9A800BDF9487044
:10340000BDF9AA20BDF94A60B84226A9B8BF07464F
:10341000ADF8A870B242B8BF1646369A01F1100353
:103420002046ADF8AA60CDF800B000F0ABFF0EA9C1
:10343000504601F050FB40F2D01504460028C2F27D
:10344000000540F0828005F120012EAF3B918ECF28
:103450000DF1F40C8CE88E00DDE93212219BCDE9F0
:103460004112DDE934211EAFCDE94321DDE92221FE
:103470004893CDE9492186CF45AB86C3DDE92421B8
:103480000EABCDE94B210ECBDDE912670DF59A7C31
:103490005297119F8CE88E00DDE9142151965491CA
:1034A000696A53920020C9683A90ADF8F000096843
:1034B00089B33AA8884704462EE02EA9304601F089
:1034C0000AFB40F2D015049F0446C2F20005E0BB9F
:1034D00026A9384601F0FFFA0446B0BB16A94046BB
:1034E00001F0F9FA044680BBD5F8249099F8010060
:1034F00010F00C0F13D026A9002F16AB08BF3946C9
:10350000B8F1000F08BF4346039F2EA81EAA0097DC
:10351000FEF7AEFE18E0FC2400F09AFF15E0039AD7
:103520002EA81EA9FEF7A0FD0EE000F091FFFA24E0
:103530000BE02EA81EA9FEF703FF05E0039B2EA8B3
:103540000EA91EAAFEF7CDFD044660B267B0BDE825
:10355000F08F4BF297504BF28021C0F60000C0F67E
:10356000000140F2A532FCF713FF4BF2802108A0C6
:10357000C0F6000140F2DB42FCF70AFF4BF280216B
:103580000DA0C0F6000140F2DC42FCF701FF00BFD5
:10359000214F505F434F52452E70744F702D3E495E
:1035A0006E666F2E506172616D2E62486173537248
:1035B000634D61736B000000214F505F434F5245D4
:1035C0002E70744F702D3E496E666F2E5061726181
:1035D0006D2E624861734465734D61736B0000002A
:1035E00010B5416840F2D012C2F20002002908BFB3
:1035F00002F120014A68127802F00E02082A1CD15A
:10360000B0F91EC0BCF1010F15DBB0F91440C2685F
:103610000B8CB0F91C004FEA440E0021012806DB98
:10362000002400BF22F814300134A042FAD1013145
:1036300061457244F2D1002010BD4BF2C0004BF244
:10364000ED31C0F60000C0F6000140F28B12FCF72D
:103650009FFE00002DE9F04F87B08446476840F296
:10366000D010C2F20000002F08BF00F120077868D8
:10367000007800F00E00082840F00C81786A10F005
:103680000C0F01D0FC2501E1C0F30216072E4FF00C
:10369000000500F2FB80DCE90301BCF91420DCF832
:1036A0002C30BCF93440B7F828A0B7F82CE00CF166
:1036B0004C0BDFE806F0A8AFEB7404EB043BBCF95D
:1036C0004E80B8F1010FC0F2E180073212B24FEA2A
:1036D000E20E01F007010122BBF9005002FA01FCE1
:1036E0004FEA44094FF0000A4FF4FF71012D16DB39
:1036F00000226746044600BF2678374204D033F8DC
:103700001260F64323F8126017F07F0601EA4707BC
:1037100002F1010204BF013401279542ECD10AF104
:10372000010A7044C2454B44E0D1AEE0BCF94E9072
:10373000B9F1010FC0F2AA80073212B24FEAE208D3
:1037400001F007010122BBF9005002FA01FC4FEA27
:10375000440A4FF0000B4FF4FF7700BF012D17DB39
:1037600000226646044600BF21780E4271461CBF07
:1037700033F81210C94323F8121016F07F0107EA3C
:10378000460602F1010204BF013401269542EBD145
:103790000BF1010B4044CB455344DFD175E0BCF93C
:1037A0004E90B9F1010F71DB073212B24FEAE20815
:1037B00001F007010122BBF9007002FA01FC4FEA97
:1037C000440A4FF0000B4FF4FF7100BF012F13DBD1
:1037D00000226646044600BF25782E4208BF23F823
:1037E00012E016F07F0501EA460602F1010204BF6D
:1037F000013401269742EFD10BF1010B4044CB4538
:103800005344E3D141E0CDE9004BCDF808A0FEF7E9
:10381000EFFB3AE0BCF94E60012E3746069635DBE9
:10382000073212B2D210059201F00701012202FA0A
:1038300001F1BBF9005004914FEA440C4FF0000B2A
:103840004FF4FF71012D18DB049F0022064600BFD4
:10385000B04618F8019B544617EA090F08BF744692
:1038600023F8124017F07F0401EA470702F1010232
:1038700004BF464601279542EAD1059A0BF1010B98
:103880001044069A63449345DCD1002568B207B022
:10389000BDE8F08F4BF2C0004BF2ED31C0F60000F6
:1038A000C0F600014FF41F72FCF772FD10B54168BD
:1038B00040F2D012C2F20002002908BF02F120013A
:1038C0004A68127802F00E020A2A1CD1B0F91EC012
:1038D000BCF1010F15DBB0F91440C2680B6AB0F9F6
:1038E0001C004FEA840E0021012806DB002400BFE3
:1038F00042F824300134A042FAD1013161457244CA
:10390000F2D1002010BD4BF2ED3103A0C0F6000152
:1039100040F29912FCF73CFD41524D5F32445F4347
:103920004F4C4F55525F535A5F3332424954203DFA
:103930003D204F505F434F52452E70744F702D3EC7
:10394000496E666F2E436F6C6F75722E7533436FC1
:103950006C6F7572535A00002DE9F04F93B04768B1
:1039600040F2D011C2F20001002F08BF01F1200780
:1039700097F82C10FF2900F0AC80B0F94E30012BE5
:103980001A460793C0F2B480D0E903323F8D0A9300
:10399000C36A02F007020993B0F934304FF0FF0E0A
:1039A0000693838AB0F94C000DF1440C0E90D81D9B
:1039B00000B2C0100590012090400390F800C0B202
:1039C0000D90F82000EA17200C90FC2000EAD700A8
:1039D00000230DF13C0A04920B9000BF0E9808934F
:1039E000012867DBDDE90395DDE90986002200BFD8
:1039F0003078FE2300EA0900E84000FB01F7C7F534
:103A0000807B1FFA8BF7022FC0F2010308BF00FB77
:103A1000113B0D98F823ADF844000C98ADF84AE03E
:103A2000ADF848000B98ADF842E0ADF84600B8F8A4
:103A30000000C700FFB2ADF83C7003EA1027FC237A
:103A400003EAD000ADF84070ADF83E00CBF58070D1
:103A5000002700BF3CF817403AF81730444303FBF7
:103A60000B439BB21B0A2AF817300137032FF1D101
:103A7000BDF83C00BDF83E70BDF84040C0F3C40046
:103A800007F0FC0740EAC70004F0F80440EA04200D
:103A90004FF4FF7328F8020B19F07F0003EA49097D
:103AA0000ABF0136681C4FF001090E9B01329A4291
:103AB00005469DD10A98059A089B10440A900798DC
:103AC000013383420998069A00EB4200099085D1A0
:103AD0000EE0D0E903C1B0F93460B0F91420C36A34
:103AE0003F8D4C30CDE9006060460297FEF780FACA
:103AF000002013B0BDE8F08F4168837D40F2D01202
:103B00000029C2F2000208BF02F12001EB2B01D113
:103B1000F5201BE12DE9F04F8BB091F82C30FF2BF5
:103B20001A46069300F08880B0F94E30012B1A46F1
:103B30000293C0F207810F8DC36AF900C9B20591E3
:103B4000F821B0F93460C268B0F91440B0F94C0003
:103B500001EA17210491FC2101EAD707211A0191FA
:103B6000311A00264FF0FF0C0DF124080DF11C094D
:103B7000009100BF0128039653DB4FF0000A00BFFD
:103B80001478069900264C43FE21B1EB142F08BF90
:103B90004FF6FE760599ADF82670ADF8241004991D
:103BA000ADF82AC0ADF82810B3F800E0A6EB142B4E
:103BB0004FEACE04E4B2F821ADF81C4001EA1E241D
:103BC000FC2101EADE06ADF82040ADF81E600BF5E1
:103BD00080760024ADF822C039F8141038F814505B
:103BE000714305FB1B1189B2090A29F8141001342D
:103BF000032CF1D1BDF81C60BDF81E40C6F3C4060D
:103C000004F0FC0446EAC406BDF820400AF1010AAB
:103C100004F0F80446EA04260132824523F8026BD8
:103C2000AED10199039E0A44029901368E42009951
:103C300003EB41039ED185E0B0F94E30012B1A46CB
:103C40000393C0F27F800E8DC26AF100B0F9347028
:103C5000C368B0F91450B0F94CB0C8B20690F8205F
:103C600000EA16200590FC2000EAD606A5EB0B0022
:103C70000290A7EB0B000021FF2509AF0DF11C0CF2
:103C8000019000BFBBF1010F049151DB4FF0000E1A
:103C900019780024FF2908BF4FF0FF340698ADF8CB
:103CA0002660ADF824000598ADF82A50ADF828003C
:103CB0001088A4EB0108C100C9B2ADF81C10F821AE
:103CC00001EA1021ADF82010FC2101EAD00008F52E
:103CD00080794FF0000AADF81E00ADF8225000BF09
:103CE0003CF81A0037F81A1000FB09F001FB180025
:103CF00080B2000A2CF81A000AF1010ABAF1030F87
:103D0000EED1BDF81C00BDF81E10C0F3C40001F0D8
:103D1000FC0140EAC100BDF820100EF1010E01F0D7
:103D2000F80140EA01200133DE4522F8020BAFD151
:103D3000029804990344039801318142019802EBEF
:103D400040029FD100200BB0BDE8F04F40B2704759
:103D50002DE9F04F9BB08146466840F2D010C2F288
:103D60000000002E08BF00F12006706800780828C7
:103D700040F04F82D9E91410B9F94E20091A0846CB
:103D8000C9F850100F9196F86800B9F84C10FF2848
:103D900013910DB208BF01306FF000470A90022D59
:103DA000A4BF681EB7FBF0F7D6E90F016FF0004320
:103DB0001691012A1CBF511E93FBF1F3D9F818107C
:103DC000B9F934B01291B9F95810D9F82C800E9184
:103DD000F16C14931191B6F84810144615914FF6F2
:103DE0008311CCF6A25105F00BFD04F086FF82464C
:103DF00016984FF08F4105F003FD05F027FC1AF1EE
:103E0000005148BF0AF12041012C22460694C0F21D
:103E1000FC814FF6006CC7F6FF7C4AF6BC020CEA48
:103E20004123890DC0F60002109552F82150C3F1CC
:103E3000004496461697A5FB04270CEA4A2CCAF3C1
:103E4000885A5EF82A20CDF82CB0CCF1004B0C90AB
:103E5000A2FB0BE0D21702FB0B004AF6BC02C0F635
:103E60000002ED1702EB810105FB0477496802EBC4
:103E70008A02526853FB01715CFB02004A00DDE9D3
:103E800011414FEA400CB6F8440001EB040E4FEA32
:103E90000E43A3EB0047824605900C985CFB00F3B1
:103EA00052FB00F283FB07500C9082FB0770CDE9B8
:103EB00007704FF6FF7021EA0000139920444FF677
:103EC000FF7420EA0404B6F846000E040699A6EB37
:103ED0000A46099506EB0E450E04A6EB004626445D
:103EE000A4EB0044A5F58035A6F5803682FB04716D
:103EF00083FB04CA83FB05E4029482FB054582FB35
:103F000006B2CDE912B283FB062B1192099A3F0C3F
:103F100047EA0141170C0C9A089E47EA0247079AA4
:103F2000029B120CCDE9034542EA06424FEA1E46C7
:103F30004FEA1C4446EA034C039B059E1D0C049B60
:103F4000360445EA03450004129B44EA0A4482FA17
:103F500096F285FA96F681FA90F18CFA91F584FA48
:103F6000B6FC1E0C139B87FA91F146EA0346119B9F
:103F700086FA90F01B0C43EA0B4384FAB2F487FAFA
:103F800090F083FAB2F2149B401A121B50FB03F01C
:103F900052FB03F240000290500001900491681A15
:103FA0001699DDF840B050FB01FEACEB040050FB6D
:103FB00001F015991690C800C0B20990F82000EAE7
:103FC00011200890FC2000EAD10007900B98039480
:103FD0004FF6B254CFF6FF74A0EB0B0000220DF1A8
:103FE0005C0A0590CDE90CE9BBF1010F0B92C0F220
:103FF000038102980499504381FA80F5019803994E
:10400000504381FA80F70026CDE9117516982246B3
:10401000704380FA97F10029C8BF40F24E2202EBAC
:10402000010CB9F85C2006FB0EF080FA95F0C2EBAB
:104030001C420028214612B2C8BF40F24E21002A7D
:1040400000F1D480B9F85E300144C3EB114000B2F6
:10405000002800F1CB80B9F9603092B2013B934265
:1040600040F3C480B9F96220013A824240F3BE8035
:10407000DDE90E504FEA2C4211FB250303EB2C44E3
:1040800014F8017F13F802B06319625DC1F30724CD
:1040900013F8010CCCF30723C4F5807101FB03FC7A
:1040A000C3F5807504FB03F165431391090A01EB25
:1040B000152303EB1C23C3F58073BBF1FF0F4FF0F7
:1040C000000915919CB208BF4FEA0429BBF1FF0E0D
:1040D00018BFDE46B7F1FF0B18BFBB46B0F1FF01BA
:1040E000149018BF0146B2F1FF0018BF1046FF2F11
:1040F0004FF60077C0F2010707EA0C0708BFB94482
:10410000FF2A139A119F22F0FF0208BF9144149BCB
:1041100004FB0E92FF2B4FF60073C0F2010303EA7B
:104120000503DDE90CE908BF1A444FEA1C2313FB21
:104130000B22159B4FF6B25413FB00202A0A129D46
:10414000DDF840B012FB0100CFF6FF7400284DD01F
:104150000A9AB0F57F4F00FB02F11046099A4FF022
:10416000FF03ADF86420089AADF86A30ADF8682016
:10417000079A19ADADF86620B8F8002038BF080CD2
:10418000D100C9B2ADF85C10F82101EA1221ADF8F6
:104190006010FC2101EAD201ADF85E10C0F580711B
:1041A0000022ADF8623000BF35F812303AF81270D4
:1041B000434307FB01339BB21B0A2AF8123001323A
:1041C000032AF1D1BDF85C00BDF85E10BDF8602097
:1041D000C0F3C40001F0FC0140EAC10002F0F801A4
:1041E000DDE9117540EA0120A8F8000001365E45BE
:1041F00008F102087FF40AAF0B9A06980132824256
:10420000059808EB40087FF4EFAE00201BB0BDE836
:10421000F08F4BF242404BF2E221C0F60000C0F6B4
:10422000000140F60E02FCF7B3F800002DE9F04F54
:1042300089B0436840F2D011C2F20001002B08BFE0
:1042400001F1200359680978082940F0908093F81B
:104250002420C168B0F91450FF2A6ED0B0F91E6056
:10426000012E37460296C0F27E801B8CB0F91CA04E
:10427000DF00F8B20490F82000EA132EFC2000EAD8
:10428000D30BC2F58077A5EB0A000024FF2507AB0E
:104290000DF1140C019000BFBAF1010F039443DB40
:1042A0004FF0000804980C88ADF81C00E000C0B284
:1042B000ADF81400F82000EA1420ADF81800FC2036
:1042C00000EAD4004FF00009ADF820E0ADF81EB0D0
:1042D000ADF82250ADF81600ADF81A5033F81900B9
:1042E0003CF81940504304FB070080B2000A2CF848
:1042F000190009F10109B9F1030FEFD1BDF814005C
:10430000BDF81640BDF81860C0F3C40004F0FC040A
:1043100040EAC40006F0F80440EA042008F101086D
:10432000D04521F8020BBDD1039C02980134844290
:10433000019801EB4001AFD115E0B0F91E20012A30
:1043400011DB1B8CB0F91C006F000026012806DB76
:10435000002500BF21F815300135A842FAD10136F9
:1043600096423944F2D1002009B0BDE8F08F4BF2FB
:1043700042404BF2FF01C0F60000C0F60001E62209
:10438000FCF706F8F0B591F80BC0DDF814E05FEA31
:104390008C7C05D45FEA0E7708D44FF0000C0DE05A
:1043A0005FEA0E7C13D44FF0000C1FE08F891E884B
:1043B00005893744A5EB070CA1F80CC05FEA4E77DE
:1043C00017D5CF895B8846893B44F31A1CE0D1F8A6
:1043D0001CC08D89BCF80470BCF808401E8804EB32
:1043E00047072E44A7EB060CA1F80CC05FEA4E77F6
:1043F00001D4002309E0CF69CD89FE887F895B88DD
:1044000007EB46072B44FB1ACB81082A0CD34F68D5
:10441000B0F9086007FA8CF716FB03734B60C068AD
:104420005A4300EBD20011E0D1E900761BB206FA44
:104430008CF64E60B0F908000FFA8CF65043073046
:104440007243C00807EBD20200FB03200860F0BDF6
:1044500010B540F2D014C2F20004606A407800F057
:104460001F00122813DCC21F082A4FF0200122D897
:10447000DFE802F005232325052323230500206C14
:1044800000F04EFAA06C00F04BFA2C2117E01A282D
:1044900004DC132812D0172805D00EE01B2802D008
:1044A0001F2818BF10BDA06C00F03AFAE06D00F0B4
:1044B00037FA402103E0032801D010BD28216018FD
:1044C000006ABDE8104000F02BBA00002DE9F0476B
:1044D00084B017460446D0E901021E46884603927E
:1044E00002900BB1002131600FB1002139602378B7
:1044F000D9073ED1010C41EA02414FF0000AE946DA
:1045000002AD00BF5A0703D516B1326802B9346054
:10451000E468B4B36FB100B240423A8820EAE07078
:1045200009B2494210447A8821EAE1713880501872
:104530007880A1682078CDF800A00191C0071CBF49
:1045400060680090484629462A4602F0ADF818B344
:104550002078C00716D1A088BDF80810BDF80A2041
:104560000844E188ADF808001144ADF80A1023783A
:10457000C8E7B8F1000F1CBFC8F80000C8F8042055
:104580000BE00024B8F1000F07D0DDE90210C8F8F5
:104590000400C8F8001000E00024204604B0BDE884
:1045A000F08700002DE9F04784B017460446D0E9B3
:1045B000012099460D46039002920FB10021396007
:1045C0002178CB070ED1C90610D517B1396801B9CA
:1045D0003C60B9F1000F09D0002D40D06860002088
:1045E00028603CE0DDB32A60686038E0E4684FF0A2
:1045F000000A64B3E84602AEA1682078CDF800A0B6
:104600000191C0071CBF60680090404631463246A9
:1046100002F04AF810B32078C10607D517B1386800
:1046200000B93C60B9F1000F12D12078C0070FD15A
:10463000A088BDF808100844ADF80800E088BDF86F
:104640000A10E4680844002CADF80A00D4D1002414
:104650002DB1DDE902106860296000E000242046E9
:1046600004B0BDE8F0872DE9F04383B0DDF82C807D
:104670001E4615460C46B8F1000F074606D004F159
:104680001401384600220123FFF78CFF04F11C03BC
:104690006946384600224FF00009FFF717FFE1692D
:1046A00019B10978022222EA410900284FD0DDF829
:1046B00028C016B10178890702D4D5F800E007E0D8
:1046C00041780123C1F3420103FA01FEC5F800E07D
:1046D0005FEA0C75BDF800304FF00005BDF8022010
:1046E0008788C1884FF0000658BFDD1B5FEA4C7316
:1046F00058BF561ABEF1080F09D3B0F908102AB2F4
:1047000011FB0622C6688BB202FB0EF10DE0B0F978
:104710000810C7688BB20EFB01F10731C90836B229
:104720002AB201FB06760EFB02F12381DDE9003798
:1047300006EBD101C4E90012C4E903374178E27AFB
:10474000A17202F0F80168F382094944E17203B0F2
:10475000BDE8F0832DE9F04F81B0154640F2D0124C
:10476000C2F20002B2F96490B2F96660A0EB0908E7
:1047700028461C468F1B02F071F8214605F040F8D0
:104780008246284602F066FA214605F039F83DB225
:104790008346284604F0A0FF04460FFA88F004F090
:1047A0009BFF07465846394605F02AF880462046C2
:1047B000514605F025F8414604F0BAFD044630465E
:1047C00004F08AFF0146204604F0B2FD0646684226
:1047D00004F082FF04465046394605F011F80546BC
:1047E0002046594605F00CF8294604F0A1FD044680
:1047F000484604F071FF0146204604F099FD00216F
:10480000044604F005FE47F2BC45CBF613450028EC
:10481000294620461CBF47F2BC41C3F6134104F0B1
:1048200087FD0A9C00212060304604F0F1FD00283D
:104830001CBF47F2BC45C3F613453046294604F079
:1048400077FD01462046616001B0BDE8F08F10B5EC
:1048500082B048B10C46694600220023FFF736FEBD
:1048600010B10178890702D4002002B010BD407851
:10487000210701D506280BD0610701D5042807D0F0
:10488000A10701D5022803D0E107EDD00028EBD124
:104890000120EAE770B540F2A802C2F2000292F8E5
:1048A00028300446DB0701D101B10C8A556A00218A
:1048B000284604F0ADFD064620B204F00DFF014687
:1048C000284604F09DFF04F0C1FE002E08BF2046DC
:1048D00000B270BD10B582B04FF0000CDDF810E0F2
:1048E000CDF800C0D1F804C0CDF804C033B90B88AE
:1048F0005C426344ADF80040ADF80430BEF1000FF7
:1049000008D149884FEA1C434C421944ADF8024093
:10491000ADF806106946012301F00FFF02B010BD8B
:10492000C8B180B582B0694600220023FFF7CEFDF2
:1049300070B10146007802070AD500F0E000402877
:1049400006D08B69CA680020C8600BB10869984717
:1049500002B0BDE88040704770B584B040F2A80452
:104960000A46C2F200040846002908BF4FF0FF3291
:10497000E36B49F63C41C0F600018B42E2611EBF89
:10498000E16300216162D4E9001204F1080300250B
:1049900026C34FF46001029140F24011C0F20801B9
:1049A000039102A944F20822DF2301F02AFF4FF409
:1049B000FC60E16B6061488AB4F90E20C0EBC00076
:1049C000810009B291FBF2F140F268265143C2F234
:1049D0000006C1EB8001D6F8F000258240F2A40564
:1049E000C2F20005618288B140F20001C2F200010A
:1049F00009682A68B1FBF0F3B0FBF2F240F2E7314C
:104A00001BA08B4238BF194601F07EFFD6F8F40098
:104A1000D6F8FC6004F060FC2B680246B6FBF3F6A7
:104A200017A00B46009601F06FFF4CF21860CFF60E
:104A3000FF70E16B6061088AA389292212FB00F0F4
:104A40001AB290FBF2F2498A02F11C067143B4F9E2
:104A50000E600DB295FBF6F502FB130005FB161177
:104A600020820FA0618201F04FFF002004B070BDD2
:104A70004650533A2533753A25756D732000000072
:104A80004350553A25322E32662525204C43442D7D
:104A90004C6174656E63793A2532756D7300000060
:104AA00076312E322E31200080B582B0B1F90EC0A1
:104AB000B1F90C00B1F91020B1F91230D1F814E0BD
:104AC0006146CDF800E0FCF77BFF002002B0BDE8B6
:104AD0008040FDF748BAB0B5054600284FF0000009
:104AE00031D00C4679B3287800F00901092929D181
:104AF0006B6903B300F01F002870286904F10C02F1
:104B00002946984708B3E86020606878A8B1C0F3E8
:104B10004200022811D880F003004FF0FF31626894
:104B200001FA00F00021E181218A22EA00006060A0
:104B3000A081084405E0FA2005E0208A0021616098
:104B4000E1602081002040B2B0BDF920FBE72DE9F3
:104B5000F04381B002F054F940F26824C2F200043C
:104B6000B4F8F8308046D4E93420002BC4F8FC00B7
:104B700069D004F1D807894683CFD4F8E460824233
:104B800038BF10468A42C4F8D800C8BF1146B818CA
:104B9000D4E93A75C4F8DC1046EBE271BE1845EB77
:104BA000E2775D1EB4F8FA30002AC4E93801C4E99E
:104BB0003A67A4F8F85018BF01332A04A4F8FA3071
:104BC00041D11A0407D09AB20023FCF7BFFD012897
:104BD00098BF012000E00020D4E94021C4F8F00093
:104BE00089EA010388EA02052B431CD0B8EB0208CE
:104BF00069EB01053046394604F0D4FA06460F4603
:104C00004046294604F07CFA02460B4630463946B7
:104C100004F01AF904F0E6F80021C4F2C82104F007
:104C2000EFFDC4F8F4004FF0FF30C4F8D80004F1F1
:104C3000DC001421FCF72CFE1E20C4F8F80002F062
:104C4000DFF8C4E94001012001B0BDE8F0837047FE
:104C5000704702F047B900002DE9F04F8FB00020F7
:104C600091460F46B1F90840B1F90A500A900AAAD4
:104C7000084600210023FFF795FC002800F0F18092
:104C800004F5FE3000F56770E903C1EA6000A0F5A5
:104C900048104FF064110AAE0024CDE9040104A9C4
:104CA000384632460023CDE90C44CDE90A4401F0F0
:104CB00044FD0C9804AACDE90840304600210023A9
:104CC0000494FFF76FFC002800F0DD800AA80021A3
:104CD00000224FF0000800F0D1FB002800F0E18036
:104CE00004A800F1010A04204BF22076CDF80490CC
:104CF0000DF128098DF810004FF00715C0F60006D9
:104D0000402408A904AA484600234FF0040BCAF81F
:104D10000080CAF8038006950796009401F037FDDD
:104D20004FF4E020CDF81200CDF816000898BDF839
:104D30002410CDE9020508440738ADF810B04FF053
:104D4000070BADF8080002A904AA48460023ADF8F5
:104D50001AB00796009401F01AFDBDF824000899D6
:104D60000E38ADF81400C81D0491ADF8100004A968
:104D7000484600223F23ADF816B001F042FD0898E6
:104D8000BDF82410BDF82620ADF81410A2F10E01D4
:104D9000ADF810000BEB1040ADF81610ADF8120096
:104DA00004A9484600223F2301F02BFD04208DF882
:104DB00010000898BDF82610CDE9020501EB10405F
:104DC0000738ADF80A0002A904AA48460023402487
:104DD000CAF800808AF80480CDF81650ADF81AB0F1
:104DE0000796009401F0D3FC0420ADF810004FF4B6
:104DF000E020CDF812000898BDF82410BDF8262058
:104E0000014402EB104007390738ADF80810ADF83F
:104E10000A0002A904AA48460023CDF81650ADF8AE
:104E20001AB007960395009401F0B1FC0898BDF8FC
:104E30002610BDF8242001EB104107300E3AADF8E2
:104E40001000C81FADF81420ADF8120004A94846A0
:104E5000DDF8049000223F23ADF816B001F0D1FC3C
:104E60001FE00A98002800F09680017801F0E00128
:104E7000202940F09080807881073FF501AFC0077E
:104E80007FF4FEAE87E0049858B1017801F0E001AC
:104E9000202906D1807881073FF518AFC0077FF43D
:104EA00015AF3889B9F1000F00EBD03005B2788921
:104EB00040F2931900EBD03006B24FF00E10BB4613
:104EC0006FF009080B904FF00000C2F200090A9041
:104ED0002FD040F2A400C2F20000046801F090FF5D
:104EE00041F2281CC2F2000CDCE9002752EA070E4E
:104EF00003D0821A71EB07021BDB3C22A4FB0227C2
:104F0000012A4FF001034FF0010488BF1346002F20
:104F100014BF14461C4600197941BEF1000FCCE9BC
:104F2000000106D099F80000013000F0070089F870
:104F3000000008EB650908EB660740F2A8164BF283
:104F400020780025C2F20006C0F600080DF1280AFC
:104F500040F29310C2F2000000784246284400F06C
:104F6000070036F8201006EB800049444088ADF871
:104F7000281040F2C811C2F2000138444C5DADF86F
:104F80002A00584651464FF6FF73009401F0FFFB8C
:104F90000135082DDCD100200FB0BDE8F08FD0F82E
:104FA000080103691847000070B582B0D0F80841C5
:104FB000A36920469847B4F852100546C1F3810210
:104FC000012A0ED0002A40F08D80224612F8510F9F
:104FD00021F00C0112F8013C01F10806A2F8016071
:104FE0000CE0224612F8510F83077BD494F850301E
:104FF00021F00C0101F10806A4F8526040F001060E
:10500000022B16700FD2A06D48B100BF90F820108F
:1050100011F0060F1CD000680028A065F6D103200F
:1050200084F850005EE05DD100F0FC00A26D02301B
:1050300084F851009068D36841F00401C4E9120378
:10504000A4F852101168012084F85000A16549E0CD
:1050500041F0040180F82010A66D96F820000007AA
:1050600016D494F8510000F0FC00023084F851008E
:1050700030697169C4E91201B4F85210022084F851
:10508000500041F0040020F00800A4F8520029E08C
:10509000B6F91E20D6E90401012A019100900BDB2C
:1050A000B6F91C20012A07DB684606F11801024602
:1050B00001F0B1FADDE9000194F85120C4E91201D0
:1050C000B4F8520002F0FC0240F00400023220F07A
:1050D000080084F85120A4F852003068012184F8B7
:1050E0005010A065284602B070BD2DE9F0438DB088
:1050F0000D460988984617466A684B42ADF8143049
:105100006B8840F2D0191144C2F20009ADF81810B2
:1051100059420646D9F84000ADF8161003EB12418B
:10512000ADF81A1005A909AA012301F006FBA8B3DE
:10513000D9F82400407800F01400042813D1D9F8DD
:105140004800018942890139B1FA81F14B09511EA8
:10515000B1FA81F14C0905AA29460094FFF7BAFB80
:10516000044608B91AE000241FB1DDE90A1078608E
:10517000396001AA30462946012301F0DEFA68B100
:10518000D9F82400007800F00E0005280BD309A8F8
:1051900001AA21464346FDF781FE00E0FD2040B212
:1051A0000DB0BDE8F083FC20F9E7B0B584B01C4633
:1051B000134605460020CDE90200CDE900006A460D
:1051C00008461946012301F0B8FAB0B140F2D010F8
:1051D000C2F20000416A0A7802F00E02052A0ED3DC
:1051E0004978234601F01402816C042A6A46284655
:1051F00018BF0021FDF752FE02E0FD2000E0FC2078
:1052000040B204B0B0BD000002784FEA114CD207A2
:105210000AD100BFC36853B1C288808894441A7809
:105220000144D0071846F5D0C1EA0C4070474BF254
:10523000C21103A0C0F6000140F27532FBF7A8F8D6
:105240004E554C4C20213D20707454696C65000013
:10525000416941B10A46096829B18142FAD1016820
:10526000116000210160418A4AF6E04321F00F02FB
:105270009A4218BF704701F00F028907428248BF67
:10528000FBF741B870472DE9F04184B000284AD0BF
:1052900005461446AA68002002AFCDE902020029A3
:1052A00018BF0F4678683968E846CDE90010012636
:1052B000284641462246FF23ADF8066001F0A1FAD8
:1052C000F888BDF80210224608440138ADF8020003
:1052D00028464146FF2301F094FA7868396822464F
:1052E000CDE9001006EB1141ADF802106FF001019D
:1052F00001EB1040ADF8060028464146FF23ADF80B
:10530000046001F07EFAB888BDF800102246084417
:105310000138ADF8000028464146FF2301F071FA3C
:1053200004B0BDE8F0814BF297504BF23C31C0F62F
:105330000000C0F6000140F23522FBF729F800001A
:105340002DE9F04F81B041F26011EFF3108072B699
:10535000C2F200010A7801230B7080F31088002A42
:105360005DD140F20000C2F20000006844F6D35163
:10537000C1F26201A0FB0112B0F57A7F40F2A400F5
:1053800040F6DA7840F2000640F2A81A40F200092E
:1053900040F2C81B4FEA9211C2F200004FF0000425
:1053A000C4F24908C4F2F016C2F2000AC4F27F390E
:1053B000C2F2000B38BF0121016000BF204604F09B
:1053C000A3F94146054604F01BFA4FF07A5104F068
:1053D00017FA074601F03EFC314604F011FA04F0DA
:1053E00035F903300AEB84014880384601F036FA7B
:1053F000314604F005FA04F029F903302AF82400B4
:105400002846494604F0FCF94FF0785104F0F8F9C9
:1054100004F01CF90BF804000134082CCED101B0C3
:10542000BDE8F08F40F26820EFF3108272B6C2F24E
:105430000000D0F8B81011B182F310887047D0F88E
:10544000BC100029F8D00B68C0F8BC3013B9002399
:10545000C0F8C03000230B60C0F8B810486082F379
:105460001088036A3BB190F8A720520703D48A69D9
:10547000406AD20F18470846FCF775BD10B584B0D6
:105480001446421C012A04D840F2D010C2F2000097
:10549000C06921B118B16A46002301F04EF940B14C
:1054A000002122460023FFF77DF8002818BF0120C5
:1054B00000E0002004B010BD2DE9F04F8FB040F2A5
:1054C000682BC2F2000BDBF82810002900F0BC8723
:1054D00081469BF8A400042800F2D286DFE810F091
:1054E00005008A061E0028004C009BF8A71000202B
:1054F000CBF8D000CBF8D40041F001008BF8A70026
:10550000EFF3108072B69BF8A6108A0700F1CC80EA
:105510004A0740F1CE8001F0F801C8E0DBF8400016
:1055200050B39BF8A700000726D403208BF8A400F3
:1055300001F066FC9BF8A720CBE93201DBE91030D3
:10554000DBF8C41002F001029847054601F058FC50
:10555000DBF8C810DBF8D020401A1044012DCBF83E
:10556000D00000F01E87002D00F11C87022D00F0F6
:105570001987042000F013BFBBF8150000071BD5E6
:105580009BF8A700C00617D49BF8A600C00740F000
:105590000D87B9F1000F0FD04C4600BF607CC007EB
:1055A00007D1DBF8C40004F108014FF4FC62FFF7F7
:1055B0006AFE2468002CF1D19BF8A70000F0FE00E1
:1055C0008BF8A70001F01CFC9BF8A720CBE9320167
:1055D000D3065DD4DBF82000002800F04187DBF81B
:1055E000B000002800F04887BBF85410BBF85820E2
:1055F000BBF85630BBF85A701144FA188181C28149
:10560000BBF8150040072BD5DBF8100000F06060F8
:10561000B0F1006F24D1DBF8B0104869002800F029
:105620007987B1F91020B1F912105143C1B1C20705
:1056300040F08287820705D50288013912BA120C20
:1056400020F8022B4A0805D00368013A5BBA40F8FB
:10565000043BF9D1C90703D0016809BA090C0180DC
:10566000DBF84C0000284ED0FCF760FC002800F06E
:105670000F870546DBE91330DBF8B0102A46984760
:1056800090B3DBF8B000FCF7DFFBCBF8B0503AE0AA
:105690009BF8A60002F0BF01C0078BF8A71000F02E
:1056A0007C80FCF7E6FB78E001F0FC0101318BF82F
:1056B000A61080F310889BF8A600C1070FD0DBF876
:1056C000641000F0CF000029CBF868908BF8A6009A
:1056D00040F0E786DBF86C00002840F0EE8601F031
:1056E0008FFBCBE9320158E0EFF3108072B6DBF8A4
:1056F000B41029609BF8A510CBF8B45001318BF899
:10570000A51080F31088EFF3108072B6DBF8C0109C
:10571000DBF8B0200024002908BF0BF1BC010A60AF
:10572000CBF8C020146080F31088FFF77BFE9BF855
:10573000A700BBF8152000F0BF01DBF8B000D207CE
:105740008BF8A71009D140F2D012C2F20002EFF399
:10575000108172B6D46181F31088018ABBF854209D
:105760001144BBF95C200BB29342ABF8541014DB2C
:105770000021ABF85410408ABBF856201044BBF906
:105780005E2003B29342ABF8560006DBABF856102E
:10579000FCF76FFB002800F066850BF18C0A0DF119
:1057A000200800BF9BF8A700C10629D40020CBF831
:1057B000B000EFF3108472B69BF817009BF8A510A9
:1057C000B1EB101F03D9FCF7B1FBCBF8B00084F3A9
:1057D0001088DBF8B000002800F0F6819BF8A710D5
:1057E000826901F0400122F0004242EA4161816198
:1057F000DBF8B060002E00F0F7859BF8A70022E0F0
:105800009BF8A610CA070FD1DBF8603000F0EF025A
:105810008BF8A72063B1587C01F0080100F002006A
:105820004018104606D109E0DBF8601031B901E0FC
:1058300000F06F0040F080008BF8A700DBF8B0604C
:10584000002E00F0C585410644D5C10606D4B9F145
:10585000000FCBF8609016D136E000BFBBF81510F2
:10586000090713D49BF8A610CA0620D4DBF86420DD
:1058700001F0CF01002ACBF8602018BF20318BF84F
:10588000A61000F0E98100F0DF001FE0DBF86420E3
:105890009BF8A61000F0AF00002A4FF000028BF832
:1058A000A700CBF8602008D001F0BF010AE000217A
:1058B00000F0AF00CBF8601006E04A0600F17684F5
:1058C00041F040018BF8A61040F0200040F080002D
:1058D0008BF8A7009BF9A700B0F1FF3F00F3A08071
:1058E000C1B2DBF8600001F07F0100288BF8A7103F
:1058F0004CD0427C930705D49BF8A62002F0F70217
:105900000BE000BF02F0FD0141749BF8A6209BF85C
:10591000A710DBF8600042F008028BF8A620437C59
:10592000490604D5D90702D112F008012ED1D907B2
:1059300007D100F108010BF15802584600F0B4FEFF
:1059400040BBFCF796FA0028C4D19BF8A700C1061B
:105950003FF52AAFBBF81510090700F17181EFF38D
:10596000108472B6DBF8B000FCF76EFA0020CBF8BA
:10597000B00084F310889BF8A700C10600F1B5853C
:10598000400600F1268400F0B9BD00BFDBE900014C
:10599000CBE916019BF81700BBF8151041EA00414E
:1059A000C1F3823090B1BBF858204FF0FF3303FAB7
:1059B00000F002EA0003ABF85830D21ABBF85C30B2
:1059C000C7431A443A441040ABF85C00C1F342406C
:1059D00088B1BBF85A204FF0FF33834002EA030737
:1059E000ABF85A70D21BBBF85E70DD433A442A44D0
:1059F0001A40ABF85E2089070DD4BBF95C10DBF8C8
:105A0000A030BBF95E208B4200F2C88002FB01F798
:105A10009F4240F2C380DBF80C10CBF89C1001E0F1
:105A2000BBF89C10BBF85A30BBF85670BBF8580056
:105A30003B44BBF954205B42DBF80470ADF82230E4
:105A4000BBF95C301044404209970FB29A1AADF886
:105A50002000BA42C8BF0A463282BBF95610BBF9D1
:105A60005E20BBF99E30511A9942C8BF194606F113
:105A70000800718241465246002300F05EFE9BF80A
:105A80001700BBF8151041EA0040010744D5DBF8C8
:105A90006010002940D19BF8A71001F0EF018BF8AE
:105AA000A710C0070AD140F2D011C2F20001EFF3F3
:105AB000108072B6C1F81CA080F31088584610F808
:105AC0008C1F10F8792C437802F07F0203F08003DA
:105AD0001A4442700322C67E62F31F118778017058
